{
  "address": "0x360dc198b68CbF357276851F8F0F4B36c16cdfF3",
  "abi": [
    {
      "inputs": [
        {
          "internalType": "address",
          "name": "vrfCoordinatorV2",
          "type": "address"
        },
        {
          "internalType": "uint64",
          "name": "subscriptionId",
          "type": "uint64"
        },
        {
          "internalType": "bytes32",
          "name": "gasLane",
          "type": "bytes32"
        },
        {
          "internalType": "uint32",
          "name": "callbackGasLimit",
          "type": "uint32"
        },
        {
          "internalType": "string[3]",
          "name": "dogTokenUris",
          "type": "string[3]"
        },
        {
          "internalType": "uint256",
          "name": "mintFee",
          "type": "uint256"
        }
      ],
      "stateMutability": "nonpayable",
      "type": "constructor"
    },
    {
      "inputs": [
        {
          "internalType": "address",
          "name": "have",
          "type": "address"
        },
        {
          "internalType": "address",
          "name": "want",
          "type": "address"
        }
      ],
      "name": "OnlyCoordinatorCanFulfill",
      "type": "error"
    },
    {
      "inputs": [],
      "name": "RandomIpfsNft__NeedMoreETHSent",
      "type": "error"
    },
    {
      "inputs": [],
      "name": "RandomIpfsNft__RangeOutOfBounds",
      "type": "error"
    },
    {
      "inputs": [],
      "name": "RandomIpfsNft__TransferFailed",
      "type": "error"
    },
    {
      "anonymous": false,
      "inputs": [
        {
          "indexed": true,
          "internalType": "address",
          "name": "owner",
          "type": "address"
        },
        {
          "indexed": true,
          "internalType": "address",
          "name": "approved",
          "type": "address"
        },
        {
          "indexed": true,
          "internalType": "uint256",
          "name": "tokenId",
          "type": "uint256"
        }
      ],
      "name": "Approval",
      "type": "event"
    },
    {
      "anonymous": false,
      "inputs": [
        {
          "indexed": true,
          "internalType": "address",
          "name": "owner",
          "type": "address"
        },
        {
          "indexed": true,
          "internalType": "address",
          "name": "operator",
          "type": "address"
        },
        {
          "indexed": false,
          "internalType": "bool",
          "name": "approved",
          "type": "bool"
        }
      ],
      "name": "ApprovalForAll",
      "type": "event"
    },
    {
      "anonymous": false,
      "inputs": [
        {
          "indexed": false,
          "internalType": "enum RandomIpfsNft.Breed",
          "name": "dogBreed",
          "type": "uint8"
        },
        {
          "indexed": false,
          "internalType": "address",
          "name": "minter",
          "type": "address"
        }
      ],
      "name": "NftMinted",
      "type": "event"
    },
    {
      "anonymous": false,
      "inputs": [
        {
          "indexed": true,
          "internalType": "uint256",
          "name": "requestId",
          "type": "uint256"
        },
        {
          "indexed": false,
          "internalType": "address",
          "name": "requester",
          "type": "address"
        }
      ],
      "name": "NftRequested",
      "type": "event"
    },
    {
      "anonymous": false,
      "inputs": [
        {
          "indexed": true,
          "internalType": "address",
          "name": "previousOwner",
          "type": "address"
        },
        {
          "indexed": true,
          "internalType": "address",
          "name": "newOwner",
          "type": "address"
        }
      ],
      "name": "OwnershipTransferred",
      "type": "event"
    },
    {
      "anonymous": false,
      "inputs": [
        {
          "indexed": true,
          "internalType": "address",
          "name": "from",
          "type": "address"
        },
        {
          "indexed": true,
          "internalType": "address",
          "name": "to",
          "type": "address"
        },
        {
          "indexed": true,
          "internalType": "uint256",
          "name": "tokenId",
          "type": "uint256"
        }
      ],
      "name": "Transfer",
      "type": "event"
    },
    {
      "inputs": [
        {
          "internalType": "address",
          "name": "to",
          "type": "address"
        },
        {
          "internalType": "uint256",
          "name": "tokenId",
          "type": "uint256"
        }
      ],
      "name": "approve",
      "outputs": [],
      "stateMutability": "nonpayable",
      "type": "function"
    },
    {
      "inputs": [
        {
          "internalType": "address",
          "name": "owner",
          "type": "address"
        }
      ],
      "name": "balanceOf",
      "outputs": [
        {
          "internalType": "uint256",
          "name": "",
          "type": "uint256"
        }
      ],
      "stateMutability": "view",
      "type": "function"
    },
    {
      "inputs": [
        {
          "internalType": "uint256",
          "name": "tokenId",
          "type": "uint256"
        }
      ],
      "name": "getApproved",
      "outputs": [
        {
          "internalType": "address",
          "name": "",
          "type": "address"
        }
      ],
      "stateMutability": "view",
      "type": "function"
    },
    {
      "inputs": [
        {
          "internalType": "uint256",
          "name": "moddedRng",
          "type": "uint256"
        }
      ],
      "name": "getBreedFromModdedRng",
      "outputs": [
        {
          "internalType": "enum RandomIpfsNft.Breed",
          "name": "",
          "type": "uint8"
        }
      ],
      "stateMutability": "pure",
      "type": "function"
    },
    {
      "inputs": [],
      "name": "getChanceArray",
      "outputs": [
        {
          "internalType": "uint256[3]",
          "name": "",
          "type": "uint256[3]"
        }
      ],
      "stateMutability": "pure",
      "type": "function"
    },
    {
      "inputs": [
        {
          "internalType": "uint256",
          "name": "index",
          "type": "uint256"
        }
      ],
      "name": "getDogTokenUris",
      "outputs": [
        {
          "internalType": "string",
          "name": "",
          "type": "string"
        }
      ],
      "stateMutability": "view",
      "type": "function"
    },
    {
      "inputs": [],
      "name": "getMintFee",
      "outputs": [
        {
          "internalType": "uint256",
          "name": "",
          "type": "uint256"
        }
      ],
      "stateMutability": "view",
      "type": "function"
    },
    {
      "inputs": [],
      "name": "getTokenCounter",
      "outputs": [
        {
          "internalType": "uint256",
          "name": "",
          "type": "uint256"
        }
      ],
      "stateMutability": "view",
      "type": "function"
    },
    {
      "inputs": [
        {
          "internalType": "address",
          "name": "owner",
          "type": "address"
        },
        {
          "internalType": "address",
          "name": "operator",
          "type": "address"
        }
      ],
      "name": "isApprovedForAll",
      "outputs": [
        {
          "internalType": "bool",
          "name": "",
          "type": "bool"
        }
      ],
      "stateMutability": "view",
      "type": "function"
    },
    {
      "inputs": [],
      "name": "name",
      "outputs": [
        {
          "internalType": "string",
          "name": "",
          "type": "string"
        }
      ],
      "stateMutability": "view",
      "type": "function"
    },
    {
      "inputs": [],
      "name": "owner",
      "outputs": [
        {
          "internalType": "address",
          "name": "",
          "type": "address"
        }
      ],
      "stateMutability": "view",
      "type": "function"
    },
    {
      "inputs": [
        {
          "internalType": "uint256",
          "name": "tokenId",
          "type": "uint256"
        }
      ],
      "name": "ownerOf",
      "outputs": [
        {
          "internalType": "address",
          "name": "",
          "type": "address"
        }
      ],
      "stateMutability": "view",
      "type": "function"
    },
    {
      "inputs": [
        {
          "internalType": "uint256",
          "name": "requestId",
          "type": "uint256"
        },
        {
          "internalType": "uint256[]",
          "name": "randomWords",
          "type": "uint256[]"
        }
      ],
      "name": "rawFulfillRandomWords",
      "outputs": [],
      "stateMutability": "nonpayable",
      "type": "function"
    },
    {
      "inputs": [],
      "name": "renounceOwnership",
      "outputs": [],
      "stateMutability": "nonpayable",
      "type": "function"
    },
    {
      "inputs": [],
      "name": "requestNft",
      "outputs": [
        {
          "internalType": "uint256",
          "name": "requestId",
          "type": "uint256"
        }
      ],
      "stateMutability": "payable",
      "type": "function"
    },
    {
      "inputs": [
        {
          "internalType": "uint256",
          "name": "",
          "type": "uint256"
        }
      ],
      "name": "s_requestIdToSender",
      "outputs": [
        {
          "internalType": "address",
          "name": "",
          "type": "address"
        }
      ],
      "stateMutability": "view",
      "type": "function"
    },
    {
      "inputs": [
        {
          "internalType": "address",
          "name": "from",
          "type": "address"
        },
        {
          "internalType": "address",
          "name": "to",
          "type": "address"
        },
        {
          "internalType": "uint256",
          "name": "tokenId",
          "type": "uint256"
        }
      ],
      "name": "safeTransferFrom",
      "outputs": [],
      "stateMutability": "nonpayable",
      "type": "function"
    },
    {
      "inputs": [
        {
          "internalType": "address",
          "name": "from",
          "type": "address"
        },
        {
          "internalType": "address",
          "name": "to",
          "type": "address"
        },
        {
          "internalType": "uint256",
          "name": "tokenId",
          "type": "uint256"
        },
        {
          "internalType": "bytes",
          "name": "data",
          "type": "bytes"
        }
      ],
      "name": "safeTransferFrom",
      "outputs": [],
      "stateMutability": "nonpayable",
      "type": "function"
    },
    {
      "inputs": [
        {
          "internalType": "address",
          "name": "operator",
          "type": "address"
        },
        {
          "internalType": "bool",
          "name": "approved",
          "type": "bool"
        }
      ],
      "name": "setApprovalForAll",
      "outputs": [],
      "stateMutability": "nonpayable",
      "type": "function"
    },
    {
      "inputs": [
        {
          "internalType": "bytes4",
          "name": "interfaceId",
          "type": "bytes4"
        }
      ],
      "name": "supportsInterface",
      "outputs": [
        {
          "internalType": "bool",
          "name": "",
          "type": "bool"
        }
      ],
      "stateMutability": "view",
      "type": "function"
    },
    {
      "inputs": [],
      "name": "symbol",
      "outputs": [
        {
          "internalType": "string",
          "name": "",
          "type": "string"
        }
      ],
      "stateMutability": "view",
      "type": "function"
    },
    {
      "inputs": [
        {
          "internalType": "uint256",
          "name": "tokenId",
          "type": "uint256"
        }
      ],
      "name": "tokenURI",
      "outputs": [
        {
          "internalType": "string",
          "name": "",
          "type": "string"
        }
      ],
      "stateMutability": "view",
      "type": "function"
    },
    {
      "inputs": [
        {
          "internalType": "address",
          "name": "from",
          "type": "address"
        },
        {
          "internalType": "address",
          "name": "to",
          "type": "address"
        },
        {
          "internalType": "uint256",
          "name": "tokenId",
          "type": "uint256"
        }
      ],
      "name": "transferFrom",
      "outputs": [],
      "stateMutability": "nonpayable",
      "type": "function"
    },
    {
      "inputs": [
        {
          "internalType": "address",
          "name": "newOwner",
          "type": "address"
        }
      ],
      "name": "transferOwnership",
      "outputs": [],
      "stateMutability": "nonpayable",
      "type": "function"
    },
    {
      "inputs": [],
      "name": "withdraw",
      "outputs": [],
      "stateMutability": "nonpayable",
      "type": "function"
    }
  ],
  "transactionHash": "0x9624a8e126c1a996dd6b3f9d84503250ed54f7fcbbd21ee3dd917ff51ab1726a",
  "args": [
    "0x8103B0A8A00be2DDC778e6e7eaa21791Cd364625",
    "871",
    "0x474e34a077df58807dbe9c96d3c009b23b3c6d0cce433e59bbf5b34f823bc56c",
    "500000",
    [
      "ipfs://QmeBBurNnenXR9EuCmyno7HxpN9mK4gnZaTEqGvZEgntFM",
      "ipfs://QmcUDjrTuTVpikh4KBpBjotPoV3Uk8hj9YjgbVh8BBx3Pd",
      "ipfs://QmespL6R8wXrLPs3ad5oX1C9ng9GE1DHmU8s25W2eo3gu5"
    ],
    "10000000000000000"
  ],
  "numDeployments": 1,
  "solcInputHash": "5698a8b5238cee0b50bed0f0116d74b3",
  "bytecode": "0x6101406040523480156200001257600080fd5b506040516200440b3803806200440b8339818101604052810190620000389190620005df565b6040518060400160405280600f81526020017f52616e646f6d2049504653204e465400000000000000000000000000000000008152506040518060400160405280600381526020017f52494e0000000000000000000000000000000000000000000000000000000000815250878073ffffffffffffffffffffffffffffffffffffffff1660808173ffffffffffffffffffffffffffffffffffffffff1660601b81525050508160009080519060200190620000f5929190620002a6565b5080600190805190602001906200010e929190620002a6565b5050506200013162000125620001d860201b60201c565b620001e060201b60201c565b8573ffffffffffffffffffffffffffffffffffffffff1660a08173ffffffffffffffffffffffffffffffffffffffff1660601b815250508467ffffffffffffffff1660c08167ffffffffffffffff1660c01b815250508360e081815250508263ffffffff166101008163ffffffff1660e01b8152505081600a906003620001ba92919062000337565b5080610120818152505060006009819055505050505050506200093a565b600033905090565b6000600760009054906101000a900473ffffffffffffffffffffffffffffffffffffffff16905081600760006101000a81548173ffffffffffffffffffffffffffffffffffffffff021916908373ffffffffffffffffffffffffffffffffffffffff1602179055508173ffffffffffffffffffffffffffffffffffffffff168173ffffffffffffffffffffffffffffffffffffffff167f8be0079c531659141344cd1fd0a4f28419497f9722a3daafe3b4186f6b6457e060405160405180910390a35050565b828054620002b490620007c4565b90600052602060002090601f016020900481019282620002d8576000855562000324565b82601f10620002f357805160ff191683800117855562000324565b8280016001018555821562000324579182015b828111156200032357825182559160200191906001019062000306565b5b5090506200033391906200039e565b5090565b8280548282559060005260206000209081019282156200038b579160200282015b828111156200038a57825182908051906020019062000379929190620002a6565b509160200191906001019062000358565b5b5090506200039a9190620003bd565b5090565b5b80821115620003b95760008160009055506001016200039f565b5090565b5b80821115620003e15760008181620003d79190620003e5565b50600101620003be565b5090565b508054620003f390620007c4565b6000825580601f1062000407575062000428565b601f0160209004906000526020600020908101906200042791906200039e565b5b50565b6000620004426200043c84620006c3565b6200069a565b905080828560208602820111156200045f576200045e62000893565b5b60005b85811015620004b457815167ffffffffffffffff8111156200048957620004886200088e565b5b80860162000498898262000567565b8552602085019450602084019350505060018101905062000462565b5050509392505050565b6000620004d5620004cf84620006ec565b6200069a565b905082815260208101848484011115620004f457620004f362000898565b5b620005018482856200078e565b509392505050565b6000815190506200051a81620008b8565b92915050565b600082601f8301126200053857620005376200088e565b5b6003620005478482856200042b565b91505092915050565b6000815190506200056181620008d2565b92915050565b600082601f8301126200057f576200057e6200088e565b5b815162000591848260208601620004be565b91505092915050565b600081519050620005ab81620008ec565b92915050565b600081519050620005c28162000906565b92915050565b600081519050620005d98162000920565b92915050565b60008060008060008060c08789031215620005ff57620005fe620008a2565b5b60006200060f89828a0162000509565b96505060206200062289828a01620005c8565b95505060406200063589828a0162000550565b94505060606200064889828a01620005b1565b935050608087015167ffffffffffffffff8111156200066c576200066b6200089d565b5b6200067a89828a0162000520565b92505060a06200068d89828a016200059a565b9150509295509295509295565b6000620006a6620006b9565b9050620006b48282620007fa565b919050565b6000604051905090565b600067ffffffffffffffff821115620006e157620006e06200085f565b5b602082029050919050565b600067ffffffffffffffff8211156200070a57620007096200085f565b5b6200071582620008a7565b9050602081019050919050565b60006200072f8262000740565b9050919050565b6000819050919050565b600073ffffffffffffffffffffffffffffffffffffffff82169050919050565b6000819050919050565b600063ffffffff82169050919050565b600067ffffffffffffffff82169050919050565b60005b83811015620007ae57808201518184015260208101905062000791565b83811115620007be576000848401525b50505050565b60006002820490506001821680620007dd57607f821691505b60208210811415620007f457620007f362000830565b5b50919050565b6200080582620008a7565b810181811067ffffffffffffffff821117156200082757620008266200085f565b5b80604052505050565b7f4e487b7100000000000000000000000000000000000000000000000000000000600052602260045260246000fd5b7f4e487b7100000000000000000000000000000000000000000000000000000000600052604160045260246000fd5b600080fd5b600080fd5b600080fd5b600080fd5b600080fd5b6000601f19601f8301169050919050565b620008c38162000722565b8114620008cf57600080fd5b50565b620008dd8162000736565b8114620008e957600080fd5b50565b620008f78162000760565b81146200090357600080fd5b50565b62000911816200076a565b81146200091d57600080fd5b50565b6200092b816200077a565b81146200093757600080fd5b50565b60805160601c60a05160601c60c05160c01c60e0516101005160e01c61012051613a67620009a460003960008181610cff0152610f0e01526000610fe801526000610fa401526000610fc501526000610f680152600081816108d101526109250152613a676000f3fe6080604052600436106101665760003560e01c806370a08231116100d1578063a36f573b1161008a578063b88d4fde11610064578063b88d4fde14610531578063c87b56dd1461055a578063e985e9c514610597578063f2fde38b146105d457610166565b8063a36f573b14610499578063a51cccf3146104d6578063aa1524911461051357610166565b806370a082311461039b578063715018a6146103d85780637a5caab3146103ef5780638da5cb5b1461041a57806395d89b4114610445578063a22cb4651461047057610166565b80633af25975116101235780633af259751461028b5780633ccfd60b146102c857806342842e0e146102df5780635dacf5f4146103085780636352211e146103335780636e02007d1461037057610166565b806301ffc9a71461016b57806306fdde03146101a8578063081812fc146101d3578063095ea7b3146102105780631fe543e31461023957806323b872dd14610262575b600080fd5b34801561017757600080fd5b50610192600480360381019061018d9190612956565b6105fd565b60405161019f9190612ef0565b60405180910390f35b3480156101b457600080fd5b506101bd6106df565b6040516101ca9190612fa2565b60405180910390f35b3480156101df57600080fd5b506101fa60048036038101906101f591906129b0565b610771565b6040516102079190612e45565b60405180910390f35b34801561021c57600080fd5b5061023760048036038101906102329190612916565b6107b7565b005b34801561024557600080fd5b50610260600480360381019061025b9190612a0a565b6108cf565b005b34801561026e57600080fd5b5061028960048036038101906102849190612800565b61098f565b005b34801561029757600080fd5b506102b260048036038101906102ad91906129b0565b6109ef565b6040516102bf9190612fa2565b60405180910390f35b3480156102d457600080fd5b506102dd610a9f565b005b3480156102eb57600080fd5b5061030660048036038101906103019190612800565b610b53565b005b34801561031457600080fd5b5061031d610b73565b60405161032a9190612ed5565b60405180910390f35b34801561033f57600080fd5b5061035a600480360381019061035591906129b0565b610b9e565b6040516103679190612e45565b60405180910390f35b34801561037c57600080fd5b50610385610c25565b6040516103929190613184565b60405180910390f35b3480156103a757600080fd5b506103c260048036038101906103bd9190612793565b610c2f565b6040516103cf9190613184565b60405180910390f35b3480156103e457600080fd5b506103ed610ce7565b005b3480156103fb57600080fd5b50610404610cfb565b6040516104119190613184565b60405180910390f35b34801561042657600080fd5b5061042f610d23565b60405161043c9190612e45565b60405180910390f35b34801561045157600080fd5b5061045a610d4d565b6040516104679190612fa2565b60405180910390f35b34801561047c57600080fd5b50610497600480360381019061049291906128d6565b610ddf565b005b3480156104a557600080fd5b506104c060048036038101906104bb91906129b0565b610df5565b6040516104cd9190612e45565b60405180910390f35b3480156104e257600080fd5b506104fd60048036038101906104f891906129b0565b610e28565b60405161050a9190612f5e565b60405180910390f35b61051b610f0a565b6040516105289190613184565b60405180910390f35b34801561053d57600080fd5b5061055860048036038101906105539190612853565b61110a565b005b34801561056657600080fd5b50610581600480360381019061057c91906129b0565b61116c565b60405161058e9190612fa2565b60405180910390f35b3480156105a357600080fd5b506105be60048036038101906105b991906127c0565b61127f565b6040516105cb9190612ef0565b60405180910390f35b3480156105e057600080fd5b506105fb60048036038101906105f69190612793565b611313565b005b60007f80ac58cd000000000000000000000000000000000000000000000000000000007bffffffffffffffffffffffffffffffffffffffffffffffffffffffff1916827bffffffffffffffffffffffffffffffffffffffffffffffffffffffff191614806106c857507f5b5e139f000000000000000000000000000000000000000000000000000000007bffffffffffffffffffffffffffffffffffffffffffffffffffffffff1916827bffffffffffffffffffffffffffffffffffffffffffffffffffffffff1916145b806106d857506106d782611397565b5b9050919050565b6060600080546106ee90613409565b80601f016020809104026020016040519081016040528092919081815260200182805461071a90613409565b80156107675780601f1061073c57610100808354040283529160200191610767565b820191906000526020600020905b81548152906001019060200180831161074a57829003601f168201915b5050505050905090565b600061077c82611401565b6004600083815260200190815260200160002060009054906101000a900473ffffffffffffffffffffffffffffffffffffffff169050919050565b60006107c282610b9e565b90508073ffffffffffffffffffffffffffffffffffffffff168373ffffffffffffffffffffffffffffffffffffffff161415610833576040517f08c379a000000000000000000000000000000000000000000000000000000000815260040161082a90613144565b60405180910390fd5b8073ffffffffffffffffffffffffffffffffffffffff1661085261144c565b73ffffffffffffffffffffffffffffffffffffffff16148061088157506108808161087b61144c565b61127f565b5b6108c0576040517f08c379a00000000000000000000000000000000000000000000000000000000081526004016108b790613164565b60405180910390fd5b6108ca8383611454565b505050565b7f000000000000000000000000000000000000000000000000000000000000000073ffffffffffffffffffffffffffffffffffffffff163373ffffffffffffffffffffffffffffffffffffffff161461098157337f00000000000000000000000000000000000000000000000000000000000000006040517f1cf993f4000000000000000000000000000000000000000000000000000000008152600401610978929190612e60565b60405180910390fd5b61098b828261150d565b5050565b6109a061099a61144c565b826116ad565b6109df576040517f08c379a00000000000000000000000000000000000000000000000000000000081526004016109d690612fc4565b60405180910390fd5b6109ea838383611742565b505050565b6060600a8281548110610a0557610a046135a2565b5b906000526020600020018054610a1a90613409565b80601f0160208091040260200160405190810160405280929190818152602001828054610a4690613409565b8015610a935780601f10610a6857610100808354040283529160200191610a93565b820191906000526020600020905b815481529060010190602001808311610a7657829003601f168201915b50505050509050919050565b610aa7611a3c565b600047905060003373ffffffffffffffffffffffffffffffffffffffff1682604051610ad290612e30565b60006040518083038185875af1925050503d8060008114610b0f576040519150601f19603f3d011682016040523d82523d6000602084013e610b14565b606091505b5050905080610b4f576040517fca7e25b700000000000000000000000000000000000000000000000000000000815260040160405180910390fd5b5050565b610b6e8383836040518060200160405280600081525061110a565b505050565b610b7b612542565b6040518060600160405280600a8152602001601e81526020016064815250905090565b600080610baa83611aba565b9050600073ffffffffffffffffffffffffffffffffffffffff168173ffffffffffffffffffffffffffffffffffffffff161415610c1c576040517f08c379a0000000000000000000000000000000000000000000000000000000008152600401610c1390613124565b60405180910390fd5b80915050919050565b6000600954905090565b60008073ffffffffffffffffffffffffffffffffffffffff168273ffffffffffffffffffffffffffffffffffffffff161415610ca0576040517f08c379a0000000000000000000000000000000000000000000000000000000008152600401610c97906130a4565b60405180910390fd5b600360008373ffffffffffffffffffffffffffffffffffffffff1673ffffffffffffffffffffffffffffffffffffffff168152602001908152602001600020549050919050565b610cef611a3c565b610cf96000611af7565b565b60007f0000000000000000000000000000000000000000000000000000000000000000905090565b6000600760009054906101000a900473ffffffffffffffffffffffffffffffffffffffff16905090565b606060018054610d5c90613409565b80601f0160208091040260200160405190810160405280929190818152602001828054610d8890613409565b8015610dd55780601f10610daa57610100808354040283529160200191610dd5565b820191906000526020600020905b815481529060010190602001808311610db857829003601f168201915b5050505050905090565b610df1610dea61144c565b8383611bbd565b5050565b60086020528060005260406000206000915054906101000a900473ffffffffffffffffffffffffffffffffffffffff1681565b600080600090506000610e39610b73565b905060005b6003811015610ed257828510158015610e785750818160038110610e6557610e646135a2565b5b602002015183610e75919061329c565b85105b15610e9a57806002811115610e9057610e8f613544565b5b9350505050610f05565b818160038110610ead57610eac6135a2565b5b602002015183610ebd919061329c565b92508080610eca9061346c565b915050610e3e565b506040517f12806c9d00000000000000000000000000000000000000000000000000000000815260040160405180910390fd5b919050565b60007f0000000000000000000000000000000000000000000000000000000000000000341015610f66576040517fb90f491000000000000000000000000000000000000000000000000000000000815260040160405180910390fd5b7f000000000000000000000000000000000000000000000000000000000000000073ffffffffffffffffffffffffffffffffffffffff16635d3b1d307f00000000000000000000000000000000000000000000000000000000000000007f000000000000000000000000000000000000000000000000000000000000000060037f000000000000000000000000000000000000000000000000000000000000000060016040518663ffffffff1660e01b8152600401611029959493929190612f0b565b602060405180830381600087803b15801561104357600080fd5b505af1158015611057573d6000803e3d6000fd5b505050506040513d601f19601f8201168201806040525081019061107b91906129dd565b9050336008600083815260200190815260200160002060006101000a81548173ffffffffffffffffffffffffffffffffffffffff021916908373ffffffffffffffffffffffffffffffffffffffff160217905550807ff873236e6cc0ecc5be1a9a35c95ee5b8d1ac4cc7bfef0cc5060391d6cc98e26b336040516110ff9190612e45565b60405180910390a290565b61111b61111561144c565b836116ad565b61115a576040517f08c379a000000000000000000000000000000000000000000000000000000000815260040161115190612fc4565b60405180910390fd5b61116684848484611d2a565b50505050565b606061117782611401565b600060066000848152602001908152602001600020805461119790613409565b80601f01602080910402602001604051908101604052809291908181526020018280546111c390613409565b80156112105780601f106111e557610100808354040283529160200191611210565b820191906000526020600020905b8154815290600101906020018083116111f357829003601f168201915b505050505090506000611221611d86565b905060008151141561123757819250505061127a565b60008251111561126c578082604051602001611254929190612e0c565b6040516020818303038152906040529250505061127a565b61127584611d9d565b925050505b919050565b6000600560008473ffffffffffffffffffffffffffffffffffffffff1673ffffffffffffffffffffffffffffffffffffffff16815260200190815260200160002060008373ffffffffffffffffffffffffffffffffffffffff1673ffffffffffffffffffffffffffffffffffffffff16815260200190815260200160002060009054906101000a900460ff16905092915050565b61131b611a3c565b600073ffffffffffffffffffffffffffffffffffffffff168173ffffffffffffffffffffffffffffffffffffffff16141561138b576040517f08c379a000000000000000000000000000000000000000000000000000000000815260040161138290613004565b60405180910390fd5b61139481611af7565b50565b60007f01ffc9a7000000000000000000000000000000000000000000000000000000007bffffffffffffffffffffffffffffffffffffffffffffffffffffffff1916827bffffffffffffffffffffffffffffffffffffffffffffffffffffffff1916149050919050565b61140a81611e05565b611449576040517f08c379a000000000000000000000000000000000000000000000000000000000815260040161144090613124565b60405180910390fd5b50565b600033905090565b816004600083815260200190815260200160002060006101000a81548173ffffffffffffffffffffffffffffffffffffffff021916908373ffffffffffffffffffffffffffffffffffffffff160217905550808273ffffffffffffffffffffffffffffffffffffffff166114c783610b9e565b73ffffffffffffffffffffffffffffffffffffffff167f8c5be1e5ebec7d5bd14f71427d1e84f3dd0314c0f7b2291e5b200ac8c7c3b92560405160405180910390a45050565b60006008600084815260200190815260200160002060009054906101000a900473ffffffffffffffffffffffffffffffffffffffff169050600060095490506000606484600081518110611564576115636135a2565b5b602002602001015161157691906134b5565b9050600061158382610e28565b905060095460096000828254611599919061329c565b925050819055506115aa8484611e46565b61166c83600a8360028111156115c3576115c2613544565b5b815481106115d4576115d36135a2565b5b9060005260206000200180546115e990613409565b80601f016020809104026020016040519081016040528092919081815260200182805461161590613409565b80156116625780601f1061163757610100808354040283529160200191611662565b820191906000526020600020905b81548152906001019060200180831161164557829003601f168201915b5050505050611e64565b7f8a269f26b688e110e9cbd887d163dab35cae678fa353a0292de532c0cac1ecdc818560405161169d929190612f79565b60405180910390a1505050505050565b6000806116b983610b9e565b90508073ffffffffffffffffffffffffffffffffffffffff168473ffffffffffffffffffffffffffffffffffffffff1614806116fb57506116fa818561127f565b5b8061173957508373ffffffffffffffffffffffffffffffffffffffff1661172184610771565b73ffffffffffffffffffffffffffffffffffffffff16145b91505092915050565b8273ffffffffffffffffffffffffffffffffffffffff1661176282610b9e565b73ffffffffffffffffffffffffffffffffffffffff16146117b8576040517f08c379a00000000000000000000000000000000000000000000000000000000081526004016117af90613024565b60405180910390fd5b600073ffffffffffffffffffffffffffffffffffffffff168273ffffffffffffffffffffffffffffffffffffffff161415611828576040517f08c379a000000000000000000000000000000000000000000000000000000000815260040161181f90613064565b60405180910390fd5b6118358383836001611ed8565b8273ffffffffffffffffffffffffffffffffffffffff1661185582610b9e565b73ffffffffffffffffffffffffffffffffffffffff16146118ab576040517f08c379a00000000000000000000000000000000000000000000000000000000081526004016118a290613024565b60405180910390fd5b6004600082815260200190815260200160002060006101000a81549073ffffffffffffffffffffffffffffffffffffffff02191690556001600360008573ffffffffffffffffffffffffffffffffffffffff1673ffffffffffffffffffffffffffffffffffffffff168152602001908152602001600020600082825403925050819055506001600360008473ffffffffffffffffffffffffffffffffffffffff1673ffffffffffffffffffffffffffffffffffffffff16815260200190815260200160002060008282540192505081905550816002600083815260200190815260200160002060006101000a81548173ffffffffffffffffffffffffffffffffffffffff021916908373ffffffffffffffffffffffffffffffffffffffff160217905550808273ffffffffffffffffffffffffffffffffffffffff168473ffffffffffffffffffffffffffffffffffffffff167fddf252ad1be2c89b69c2b068fc378daa952ba7f163c4a11628f55a4df523b3ef60405160405180910390a4611a378383836001611ede565b505050565b611a4461144c565b73ffffffffffffffffffffffffffffffffffffffff16611a62610d23565b73ffffffffffffffffffffffffffffffffffffffff1614611ab8576040517f08c379a0000000000000000000000000000000000000000000000000000000008152600401611aaf90613104565b60405180910390fd5b565b60006002600083815260200190815260200160002060009054906101000a900473ffffffffffffffffffffffffffffffffffffffff169050919050565b6000600760009054906101000a900473ffffffffffffffffffffffffffffffffffffffff16905081600760006101000a81548173ffffffffffffffffffffffffffffffffffffffff021916908373ffffffffffffffffffffffffffffffffffffffff1602179055508173ffffffffffffffffffffffffffffffffffffffff168173ffffffffffffffffffffffffffffffffffffffff167f8be0079c531659141344cd1fd0a4f28419497f9722a3daafe3b4186f6b6457e060405160405180910390a35050565b8173ffffffffffffffffffffffffffffffffffffffff168373ffffffffffffffffffffffffffffffffffffffff161415611c2c576040517f08c379a0000000000000000000000000000000000000000000000000000000008152600401611c2390613084565b60405180910390fd5b80600560008573ffffffffffffffffffffffffffffffffffffffff1673ffffffffffffffffffffffffffffffffffffffff16815260200190815260200160002060008473ffffffffffffffffffffffffffffffffffffffff1673ffffffffffffffffffffffffffffffffffffffff16815260200190815260200160002060006101000a81548160ff0219169083151502179055508173ffffffffffffffffffffffffffffffffffffffff168373ffffffffffffffffffffffffffffffffffffffff167f17307eab39ab6107e8899845ad3d59bd9653f200f220920489ca2b5937696c3183604051611d1d9190612ef0565b60405180910390a3505050565b611d35848484611742565b611d4184848484611ee4565b611d80576040517f08c379a0000000000000000000000000000000000000000000000000000000008152600401611d7790612fe4565b60405180910390fd5b50505050565b606060405180602001604052806000815250905090565b6060611da882611401565b6000611db2611d86565b90506000815111611dd25760405180602001604052806000815250611dfd565b80611ddc8461207b565b604051602001611ded929190612e0c565b6040516020818303038152906040525b915050919050565b60008073ffffffffffffffffffffffffffffffffffffffff16611e2783611aba565b73ffffffffffffffffffffffffffffffffffffffff1614159050919050565b611e60828260405180602001604052806000815250612153565b5050565b611e6d82611e05565b611eac576040517f08c379a0000000000000000000000000000000000000000000000000000000008152600401611ea3906130c4565b60405180910390fd5b80600660008481526020019081526020016000209080519060200190611ed3929190612564565b505050565b50505050565b50505050565b6000611f058473ffffffffffffffffffffffffffffffffffffffff166121ae565b1561206e578373ffffffffffffffffffffffffffffffffffffffff1663150b7a02611f2e61144c565b8786866040518563ffffffff1660e01b8152600401611f509493929190612e89565b602060405180830381600087803b158015611f6a57600080fd5b505af1925050508015611f9b57506040513d601f19601f82011682018060405250810190611f989190612983565b60015b61201e573d8060008114611fcb576040519150601f19603f3d011682016040523d82523d6000602084013e611fd0565b606091505b50600081511415612016576040517f08c379a000000000000000000000000000000000000000000000000000000000815260040161200d90612fe4565b60405180910390fd5b805181602001fd5b63150b7a0260e01b7bffffffffffffffffffffffffffffffffffffffffffffffffffffffff1916817bffffffffffffffffffffffffffffffffffffffffffffffffffffffff191614915050612073565b600190505b949350505050565b60606000600161208a846121d1565b01905060008167ffffffffffffffff8111156120a9576120a86135d1565b5b6040519080825280601f01601f1916602001820160405280156120db5781602001600182028036833780820191505090505b509050600082602001820190505b600115612148578080600190039150507f3031323334353637383961626364656600000000000000000000000000000000600a86061a8153600a858161213257612131613515565b5b049450600085141561214357612148565b6120e9565b819350505050919050565b61215d8383612324565b61216a6000848484611ee4565b6121a9576040517f08c379a00000000000000000000000000000000000000000000000000000000081526004016121a090612fe4565b60405180910390fd5b505050565b6000808273ffffffffffffffffffffffffffffffffffffffff163b119050919050565b600080600090507a184f03e93ff9f4daa797ed6e38ed64bf6a1f010000000000000000831061222f577a184f03e93ff9f4daa797ed6e38ed64bf6a1f010000000000000000838161222557612224613515565b5b0492506040810190505b6d04ee2d6d415b85acef8100000000831061226c576d04ee2d6d415b85acef8100000000838161226257612261613515565b5b0492506020810190505b662386f26fc10000831061229b57662386f26fc10000838161229157612290613515565b5b0492506010810190505b6305f5e10083106122c4576305f5e10083816122ba576122b9613515565b5b0492506008810190505b61271083106122e95761271083816122df576122de613515565b5b0492506004810190505b6064831061230c576064838161230257612301613515565b5b0492506002810190505b600a831061231b576001810190505b80915050919050565b600073ffffffffffffffffffffffffffffffffffffffff168273ffffffffffffffffffffffffffffffffffffffff161415612394576040517f08c379a000000000000000000000000000000000000000000000000000000000815260040161238b906130e4565b60405180910390fd5b61239d81611e05565b156123dd576040517f08c379a00000000000000000000000000000000000000000000000000000000081526004016123d490613044565b60405180910390fd5b6123eb600083836001611ed8565b6123f481611e05565b15612434576040517f08c379a000000000000000000000000000000000000000000000000000000000815260040161242b90613044565b60405180910390fd5b6001600360008473ffffffffffffffffffffffffffffffffffffffff1673ffffffffffffffffffffffffffffffffffffffff16815260200190815260200160002060008282540192505081905550816002600083815260200190815260200160002060006101000a81548173ffffffffffffffffffffffffffffffffffffffff021916908373ffffffffffffffffffffffffffffffffffffffff160217905550808273ffffffffffffffffffffffffffffffffffffffff16600073ffffffffffffffffffffffffffffffffffffffff167fddf252ad1be2c89b69c2b068fc378daa952ba7f163c4a11628f55a4df523b3ef60405160405180910390a461253e600083836001611ede565b5050565b6040518060600160405280600390602082028036833780820191505090505090565b82805461257090613409565b90600052602060002090601f01602090048101928261259257600085556125d9565b82601f106125ab57805160ff19168380011785556125d9565b828001600101855582156125d9579182015b828111156125d85782518255916020019190600101906125bd565b5b5090506125e691906125ea565b5090565b5b808211156126035760008160009055506001016125eb565b5090565b600061261a612615846131c4565b61319f565b9050808382526020820190508285602086028201111561263d5761263c613605565b5b60005b8581101561266d57816126538882612769565b845260208401935060208301925050600181019050612640565b5050509392505050565b600061268a612685846131f0565b61319f565b9050828152602081018484840111156126a6576126a561360a565b5b6126b18482856133c7565b509392505050565b6000813590506126c8816139d5565b92915050565b600082601f8301126126e3576126e2613600565b5b81356126f3848260208601612607565b91505092915050565b60008135905061270b816139ec565b92915050565b60008135905061272081613a03565b92915050565b60008151905061273581613a03565b92915050565b600082601f8301126127505761274f613600565b5b8135612760848260208601612677565b91505092915050565b60008135905061277881613a1a565b92915050565b60008151905061278d81613a1a565b92915050565b6000602082840312156127a9576127a8613614565b5b60006127b7848285016126b9565b91505092915050565b600080604083850312156127d7576127d6613614565b5b60006127e5858286016126b9565b92505060206127f6858286016126b9565b9150509250929050565b60008060006060848603121561281957612818613614565b5b6000612827868287016126b9565b9350506020612838868287016126b9565b925050604061284986828701612769565b9150509250925092565b6000806000806080858703121561286d5761286c613614565b5b600061287b878288016126b9565b945050602061288c878288016126b9565b935050604061289d87828801612769565b925050606085013567ffffffffffffffff8111156128be576128bd61360f565b5b6128ca8782880161273b565b91505092959194509250565b600080604083850312156128ed576128ec613614565b5b60006128fb858286016126b9565b925050602061290c858286016126fc565b9150509250929050565b6000806040838503121561292d5761292c613614565b5b600061293b858286016126b9565b925050602061294c85828601612769565b9150509250929050565b60006020828403121561296c5761296b613614565b5b600061297a84828501612711565b91505092915050565b60006020828403121561299957612998613614565b5b60006129a784828501612726565b91505092915050565b6000602082840312156129c6576129c5613614565b5b60006129d484828501612769565b91505092915050565b6000602082840312156129f3576129f2613614565b5b6000612a018482850161277e565b91505092915050565b60008060408385031215612a2157612a20613614565b5b6000612a2f85828601612769565b925050602083013567ffffffffffffffff811115612a5057612a4f61360f565b5b612a5c858286016126ce565b9150509250929050565b6000612a728383612dd0565b60208301905092915050565b612a87816132f2565b82525050565b612a968161322b565b612aa08184613259565b9250612aab82613221565b8060005b83811015612adc578151612ac38782612a66565b9650612ace8361324c565b925050600181019050612aaf565b505050505050565b612aed81613304565b82525050565b612afc81613310565b82525050565b6000612b0d82613236565b612b178185613264565b9350612b278185602086016133d6565b612b3081613619565b840191505092915050565b612b44816133b5565b82525050565b6000612b5582613241565b612b5f8185613280565b9350612b6f8185602086016133d6565b612b7881613619565b840191505092915050565b6000612b8e82613241565b612b988185613291565b9350612ba88185602086016133d6565b80840191505092915050565b6000612bc1602d83613280565b9150612bcc8261362a565b604082019050919050565b6000612be4603283613280565b9150612bef82613679565b604082019050919050565b6000612c07602683613280565b9150612c12826136c8565b604082019050919050565b6000612c2a602583613280565b9150612c3582613717565b604082019050919050565b6000612c4d601c83613280565b9150612c5882613766565b602082019050919050565b6000612c70602483613280565b9150612c7b8261378f565b604082019050919050565b6000612c93601983613280565b9150612c9e826137de565b602082019050919050565b6000612cb6602983613280565b9150612cc182613807565b604082019050919050565b6000612cd9602e83613280565b9150612ce482613856565b604082019050919050565b6000612cfc602083613280565b9150612d07826138a5565b602082019050919050565b6000612d1f602083613280565b9150612d2a826138ce565b602082019050919050565b6000612d42601883613280565b9150612d4d826138f7565b602082019050919050565b6000612d65602183613280565b9150612d7082613920565b604082019050919050565b6000612d88600083613275565b9150612d938261396f565b600082019050919050565b6000612dab603d83613280565b9150612db682613972565b604082019050919050565b612dca81613359565b82525050565b612dd981613387565b82525050565b612de881613387565b82525050565b612df781613391565b82525050565b612e06816133a1565b82525050565b6000612e188285612b83565b9150612e248284612b83565b91508190509392505050565b6000612e3b82612d7b565b9150819050919050565b6000602082019050612e5a6000830184612a7e565b92915050565b6000604082019050612e756000830185612a7e565b612e826020830184612a7e565b9392505050565b6000608082019050612e9e6000830187612a7e565b612eab6020830186612a7e565b612eb86040830185612ddf565b8181036060830152612eca8184612b02565b905095945050505050565b6000606082019050612eea6000830184612a8d565b92915050565b6000602082019050612f056000830184612ae4565b92915050565b600060a082019050612f206000830188612af3565b612f2d6020830187612dfd565b612f3a6040830186612dc1565b612f476060830185612dee565b612f546080830184612dee565b9695505050505050565b6000602082019050612f736000830184612b3b565b92915050565b6000604082019050612f8e6000830185612b3b565b612f9b6020830184612a7e565b9392505050565b60006020820190508181036000830152612fbc8184612b4a565b905092915050565b60006020820190508181036000830152612fdd81612bb4565b9050919050565b60006020820190508181036000830152612ffd81612bd7565b9050919050565b6000602082019050818103600083015261301d81612bfa565b9050919050565b6000602082019050818103600083015261303d81612c1d565b9050919050565b6000602082019050818103600083015261305d81612c40565b9050919050565b6000602082019050818103600083015261307d81612c63565b9050919050565b6000602082019050818103600083015261309d81612c86565b9050919050565b600060208201905081810360008301526130bd81612ca9565b9050919050565b600060208201905081810360008301526130dd81612ccc565b9050919050565b600060208201905081810360008301526130fd81612cef565b9050919050565b6000602082019050818103600083015261311d81612d12565b9050919050565b6000602082019050818103600083015261313d81612d35565b9050919050565b6000602082019050818103600083015261315d81612d58565b9050919050565b6000602082019050818103600083015261317d81612d9e565b9050919050565b60006020820190506131996000830184612ddf565b92915050565b60006131a96131ba565b90506131b5828261343b565b919050565b6000604051905090565b600067ffffffffffffffff8211156131df576131de6135d1565b5b602082029050602081019050919050565b600067ffffffffffffffff82111561320b5761320a6135d1565b5b61321482613619565b9050602081019050919050565b6000819050919050565b600060039050919050565b600081519050919050565b600081519050919050565b6000602082019050919050565b600081905092915050565b600082825260208201905092915050565b600081905092915050565b600082825260208201905092915050565b600081905092915050565b60006132a782613387565b91506132b283613387565b9250827fffffffffffffffffffffffffffffffffffffffffffffffffffffffffffffffff038211156132e7576132e66134e6565b5b828201905092915050565b60006132fd82613367565b9050919050565b60008115159050919050565b6000819050919050565b60007fffffffff0000000000000000000000000000000000000000000000000000000082169050919050565b6000819050613354826139c1565b919050565b600061ffff82169050919050565b600073ffffffffffffffffffffffffffffffffffffffff82169050919050565b6000819050919050565b600063ffffffff82169050919050565b600067ffffffffffffffff82169050919050565b60006133c082613346565b9050919050565b82818337600083830152505050565b60005b838110156133f45780820151818401526020810190506133d9565b83811115613403576000848401525b50505050565b6000600282049050600182168061342157607f821691505b6020821081141561343557613434613573565b5b50919050565b61344482613619565b810181811067ffffffffffffffff82111715613463576134626135d1565b5b80604052505050565b600061347782613387565b91507fffffffffffffffffffffffffffffffffffffffffffffffffffffffffffffffff8214156134aa576134a96134e6565b5b600182019050919050565b60006134c082613387565b91506134cb83613387565b9250826134db576134da613515565b5b828206905092915050565b7f4e487b7100000000000000000000000000000000000000000000000000000000600052601160045260246000fd5b7f4e487b7100000000000000000000000000000000000000000000000000000000600052601260045260246000fd5b7f4e487b7100000000000000000000000000000000000000000000000000000000600052602160045260246000fd5b7f4e487b7100000000000000000000000000000000000000000000000000000000600052602260045260246000fd5b7f4e487b7100000000000000000000000000000000000000000000000000000000600052603260045260246000fd5b7f4e487b7100000000000000000000000000000000000000000000000000000000600052604160045260246000fd5b600080fd5b600080fd5b600080fd5b600080fd5b600080fd5b6000601f19601f8301169050919050565b7f4552433732313a2063616c6c6572206973206e6f7420746f6b656e206f776e6560008201527f72206f7220617070726f76656400000000000000000000000000000000000000602082015250565b7f4552433732313a207472616e7366657220746f206e6f6e20455243373231526560008201527f63656976657220696d706c656d656e7465720000000000000000000000000000602082015250565b7f4f776e61626c653a206e6577206f776e657220697320746865207a65726f206160008201527f6464726573730000000000000000000000000000000000000000000000000000602082015250565b7f4552433732313a207472616e736665722066726f6d20696e636f72726563742060008201527f6f776e6572000000000000000000000000000000000000000000000000000000602082015250565b7f4552433732313a20746f6b656e20616c7265616479206d696e74656400000000600082015250565b7f4552433732313a207472616e7366657220746f20746865207a65726f2061646460008201527f7265737300000000000000000000000000000000000000000000000000000000602082015250565b7f4552433732313a20617070726f766520746f2063616c6c657200000000000000600082015250565b7f4552433732313a2061646472657373207a65726f206973206e6f74206120766160008201527f6c6964206f776e65720000000000000000000000000000000000000000000000602082015250565b7f45524337323155524953746f726167653a2055524920736574206f66206e6f6e60008201527f6578697374656e7420746f6b656e000000000000000000000000000000000000602082015250565b7f4552433732313a206d696e7420746f20746865207a65726f2061646472657373600082015250565b7f4f776e61626c653a2063616c6c6572206973206e6f7420746865206f776e6572600082015250565b7f4552433732313a20696e76616c696420746f6b656e2049440000000000000000600082015250565b7f4552433732313a20617070726f76616c20746f2063757272656e74206f776e6560008201527f7200000000000000000000000000000000000000000000000000000000000000602082015250565b50565b7f4552433732313a20617070726f76652063616c6c6572206973206e6f7420746f60008201527f6b656e206f776e6572206f7220617070726f76656420666f7220616c6c000000602082015250565b600381106139d2576139d1613544565b5b50565b6139de816132f2565b81146139e957600080fd5b50565b6139f581613304565b8114613a0057600080fd5b50565b613a0c8161331a565b8114613a1757600080fd5b50565b613a2381613387565b8114613a2e57600080fd5b5056fea2646970667358221220196ddd68f6e8094321dfc6eebf57b3b31cb0cb430899b9eb94a43b52d08a2ed864736f6c63430008070033",
  "devdoc": {
    "kind": "dev",
    "methods": {
      "approve(address,uint256)": {
        "details": "See {IERC721-approve}."
      },
      "balanceOf(address)": {
        "details": "See {IERC721-balanceOf}."
      },
      "getApproved(uint256)": {
        "details": "See {IERC721-getApproved}."
      },
      "isApprovedForAll(address,address)": {
        "details": "See {IERC721-isApprovedForAll}."
      },
      "name()": {
        "details": "See {IERC721Metadata-name}."
      },
      "owner()": {
        "details": "Returns the address of the current owner."
      },
      "ownerOf(uint256)": {
        "details": "See {IERC721-ownerOf}."
      },
      "renounceOwnership()": {
        "details": "Leaves the contract without owner. It will not be possible to call `onlyOwner` functions anymore. Can only be called by the current owner. NOTE: Renouncing ownership will leave the contract without an owner, thereby removing any functionality that is only available to the owner."
      },
      "safeTransferFrom(address,address,uint256)": {
        "details": "See {IERC721-safeTransferFrom}."
      },
      "safeTransferFrom(address,address,uint256,bytes)": {
        "details": "See {IERC721-safeTransferFrom}."
      },
      "setApprovalForAll(address,bool)": {
        "details": "See {IERC721-setApprovalForAll}."
      },
      "supportsInterface(bytes4)": {
        "details": "See {IERC165-supportsInterface}."
      },
      "symbol()": {
        "details": "See {IERC721Metadata-symbol}."
      },
      "tokenURI(uint256)": {
        "details": "See {IERC721Metadata-tokenURI}."
      },
      "transferFrom(address,address,uint256)": {
        "details": "See {IERC721-transferFrom}."
      },
      "transferOwnership(address)": {
        "details": "Transfers ownership of the contract to a new account (`newOwner`). Can only be called by the current owner."
      }
    },
    "version": 1
  },
  "userdoc": {
    "kind": "user",
    "methods": {},
    "version": 1
  },
  "storageLayout": {
    "storage": [
      {
        "astId": 292,
        "contract": "contracts/RandomIpfsNft.sol:RandomIpfsNft",
        "label": "_name",
        "offset": 0,
        "slot": "0",
        "type": "t_string_storage"
      },
      {
        "astId": 294,
        "contract": "contracts/RandomIpfsNft.sol:RandomIpfsNft",
        "label": "_symbol",
        "offset": 0,
        "slot": "1",
        "type": "t_string_storage"
      },
      {
        "astId": 298,
        "contract": "contracts/RandomIpfsNft.sol:RandomIpfsNft",
        "label": "_owners",
        "offset": 0,
        "slot": "2",
        "type": "t_mapping(t_uint256,t_address)"
      },
      {
        "astId": 302,
        "contract": "contracts/RandomIpfsNft.sol:RandomIpfsNft",
        "label": "_balances",
        "offset": 0,
        "slot": "3",
        "type": "t_mapping(t_address,t_uint256)"
      },
      {
        "astId": 306,
        "contract": "contracts/RandomIpfsNft.sol:RandomIpfsNft",
        "label": "_tokenApprovals",
        "offset": 0,
        "slot": "4",
        "type": "t_mapping(t_uint256,t_address)"
      },
      {
        "astId": 312,
        "contract": "contracts/RandomIpfsNft.sol:RandomIpfsNft",
        "label": "_operatorApprovals",
        "offset": 0,
        "slot": "5",
        "type": "t_mapping(t_address,t_mapping(t_address,t_bool))"
      },
      {
        "astId": 1340,
        "contract": "contracts/RandomIpfsNft.sol:RandomIpfsNft",
        "label": "_tokenURIs",
        "offset": 0,
        "slot": "6",
        "type": "t_mapping(t_uint256,t_string_storage)"
      },
      {
        "astId": 161,
        "contract": "contracts/RandomIpfsNft.sol:RandomIpfsNft",
        "label": "_owner",
        "offset": 0,
        "slot": "7",
        "type": "t_address"
      },
      {
        "astId": 2948,
        "contract": "contracts/RandomIpfsNft.sol:RandomIpfsNft",
        "label": "s_requestIdToSender",
        "offset": 0,
        "slot": "8",
        "type": "t_mapping(t_uint256,t_address)"
      },
      {
        "astId": 2950,
        "contract": "contracts/RandomIpfsNft.sol:RandomIpfsNft",
        "label": "s_tokenCounter",
        "offset": 0,
        "slot": "9",
        "type": "t_uint256"
      },
      {
        "astId": 2956,
        "contract": "contracts/RandomIpfsNft.sol:RandomIpfsNft",
        "label": "s_dogTokenUris",
        "offset": 0,
        "slot": "10",
        "type": "t_array(t_string_storage)dyn_storage"
      }
    ],
    "types": {
      "t_address": {
        "encoding": "inplace",
        "label": "address",
        "numberOfBytes": "20"
      },
      "t_array(t_string_storage)dyn_storage": {
        "base": "t_string_storage",
        "encoding": "dynamic_array",
        "label": "string[]",
        "numberOfBytes": "32"
      },
      "t_bool": {
        "encoding": "inplace",
        "label": "bool",
        "numberOfBytes": "1"
      },
      "t_mapping(t_address,t_bool)": {
        "encoding": "mapping",
        "key": "t_address",
        "label": "mapping(address => bool)",
        "numberOfBytes": "32",
        "value": "t_bool"
      },
      "t_mapping(t_address,t_mapping(t_address,t_bool))": {
        "encoding": "mapping",
        "key": "t_address",
        "label": "mapping(address => mapping(address => bool))",
        "numberOfBytes": "32",
        "value": "t_mapping(t_address,t_bool)"
      },
      "t_mapping(t_address,t_uint256)": {
        "encoding": "mapping",
        "key": "t_address",
        "label": "mapping(address => uint256)",
        "numberOfBytes": "32",
        "value": "t_uint256"
      },
      "t_mapping(t_uint256,t_address)": {
        "encoding": "mapping",
        "key": "t_uint256",
        "label": "mapping(uint256 => address)",
        "numberOfBytes": "32",
        "value": "t_address"
      },
      "t_mapping(t_uint256,t_string_storage)": {
        "encoding": "mapping",
        "key": "t_uint256",
        "label": "mapping(uint256 => string)",
        "numberOfBytes": "32",
        "value": "t_string_storage"
      },
      "t_string_storage": {
        "encoding": "bytes",
        "label": "string",
        "numberOfBytes": "32"
      },
      "t_uint256": {
        "encoding": "inplace",
        "label": "uint256",
        "numberOfBytes": "32"
      }
    }
  }
}